0000000146749196     RXQWIZNJJRZ         10
0000000238508802     VPPBID              1 
000000031125662195549ZLJONBAGCLSXZLJYXSY 15
